:020000040800F2
:1000000000000824110700086107000861070008C4
:10001000610700081D0F00086107000800000000CC
:100020000000000000000000000000006107000860
:1000300061070008000000006107000849B10008DE
:1000400061070008610700086107000861070008F0
:1000500061070008610700086107000861070008E0
:1000600061070008610700086107000861070008D0
:100070004592000861070008610700083582000802
:1000800061070008610700086107000861070008B0
:1000900061070008610700086107000861070008A0
:1000A0006107000861070008610700086107000890
:1000B000610700082D450008610700086107000876
:1000C0006107000861070008610700086107000870
:1000D0006107000851BC000861070008C5BC0008A2
:1000E00061070008610700080000000061070008C0
:1000F0006107000861070008610700086107000840
:10010000610700086107000891AE00086107000858
:10011000610700086107000861070008610700081F
:10012000610700086107000861070008610700080F
:1001300061070008610700086107000861070008FF
:1001400000000000000000000000000000000000AF
:1001500061070008610700086107000861070008DF
:1001600061070008610700086107000861070008CF
:1001700061070008610700086107000861070008BF
:1001800061070008610700086107000861070008AF
:10019000610700086107000861070008610700089F
:1001A000610700086107000861070008610700088F
:1001B000610700086107000861070008610700087F
:1001C000610700086107000861070008610700086F
:1001D000610700086107000861070008610700085F
:1001E000610700086107000861070008610700084F
:1001F000610700086107000861070008610700083F
:10020000610700086107000861070008610700082E
:10021000610700086107000861070008610700081E
:10022000610700086107000861070008000000007E
:10023000610700086107000800000000610700086E
:1002400061070008610700086107000861070008EE
:1002500061070008610700086107000861070008DE
:1002600061070008610700086107000861070008CE
:10027000610700086107000861070008000000002E
:10028000610700086107000861070008000000001E
:080290000000000061070008F6
:1002A00010B5054C237833B9044B13B10448AFF3B0
:1002B00000800123237010BDB81C00240000000042
:1002C000D0DD000808B5034B1BB103490348AFF369
:1002D000008008BD00000000BC1C0024D0DD000828
:1002E00081F0004102E000BF83F0004330B54FEAE7
:1002F00041044FEA430594EA050F08BF90EA020F54
:100300001FBF54EA000C55EA020C7FEA645C7FEAE6
:10031000655C00F0E2804FEA5454D4EB5555B8BF09
:100320006D420CDD2C4480EA020281EA030382EA7A
:10033000000083EA010180EA020281EA0303362D0C
:1003400088BF30BD11F0004F4FEA01314FF4801CDF
:100350004CEA113102D0404261EB410113F0004FF1
:100360004FEA03334CEA133302D0524263EB4303A8
:1003700094EA050F00F0A780A4F10104D5F1200E46
:100380000DDB02FA0EFC22FA05F2801841F10001A1
:1003900003FA0EF2801843FA05F359410EE0A5F175
:1003A00020050EF1200E012A03FA0EFC28BF4CF0A6
:1003B000020C43FA05F3C01851EBE37101F000455C
:1003C00007D54FF0000EDCF1000C7EEB00006EEB69
:1003D0000101B1F5801F1BD3B1F5001F0CD34908F3
:1003E0005FEA30004FEA3C0C04F101044FEA44524A
:1003F00012F5800F80F09A80BCF1004F08BF5FEAD1
:10040000500C50F1000041EB045141EA050130BDB0
:100410005FEA4C0C404141EB0101013C28BFB1F5C2
:10042000801FE9D291F0000F04BF01460020B1FA0D
:1004300081F308BF2033A3F10B03B3F120020CDAE0
:100440000C3208DD02F1140CC2F10C0201FA0CF0BE
:1004500021FA02F10CE002F11402D8BFC2F1200C23
:1004600001FA02F120FA0CFCDCBF41EA0C019040D9
:10047000E41AA2BF01EB0451294330BD6FEA040422
:100480001F3C1CDA0C340EDC04F11404C4F120020D
:1004900020FA04F001FA02F340EA030021FA04F31F
:1004A00045EA030130BDC4F10C04C4F1200220FA76
:1004B00002F001FA04F340EA0300294630BD21FAB4
:1004C00004F0294630BD94F0000F83F4801306BF7A
:1004D00081F480110134013D4EE77FEA645C18BF6E
:1004E0007FEA655C29D094EA050F08BF90EA020F05
:1004F00005D054EA000C04BF1946104630BD91EAFD
:10050000030F1EBF0021002030BD5FEA545C05D1FF
:100510004000494128BF41F0004130BD14F580043E
:100520003CBF01F5801130BD01F0004545F0FE41B2
:1005300041F470014FF0000030BD7FEA645C1ABFE7
:10054000194610467FEA655C1CBF0B46024650EA1E
:10055000013406BF52EA033591EA030F41F400214A
:1005600030BD00BF90F0000F04BF0021704730B5D0
:100570004FF4806404F132044FF000054FF00001A5
:1005800050E700BF90F0000F04BF0021704730B566
:100590004FF4806404F1320410F0004548BF40423B
:1005A0004FF000013EE700BF42004FEAE2014FEA90
:1005B00031014FEA02701FBF12F07F4393F07F4F6B
:1005C00081F06051704732F07F4208BF704793F06E
:1005D0007F4F04BF41F40021704730B54FF4607481
:1005E00001F0004521F000411CE700BF50EA010284
:1005F00008BF704730B54FF000050AE050EA01022D
:1006000008BF704730B511F0004502D5404261EB9C
:1006100041014FF4806404F132045FEA915C3FF4DD
:10062000D8AE4FF003025FEADC0C18BF03325FEA7A
:10063000DC0C18BF033202EBDC02C2F1200300FA2B
:1006400003FC20FA02F001FA03FE40EA0E0021FA50
:1006500002F11444BDE600BF0000000000000000ED
:1006600001F0FF01102A2BDB10F0070F08D010F863
:10067000013B013A8B422DD010F0070F42B3F6D167
:10068000F0B441EA012141EA014122F007047FF080
:1006900000070023F0E80256083C85EA010586EAD7
:1006A000010685FA47F5A3FA87F586FA47F6A5FA13
:1006B00087F68EB9EED1F0BC01F0FF0102F007021F
:1006C00032B110F8013B013A83EA010313B1F8D1CA
:1006D0000020704701387047002D06BF35460338AB
:1006E000073815F0010F07D1013015F4807F02BFE4
:1006F000013015F4C03F0130F0BC0138704700BF35
:10070000034613F8012B002AFBD1181A0138704751
:10071000DFF834D000F026F80C480D490D4A0023CC
:1007200002E0D458C4500433C4188C42F9D30A4AA6
:100730000A4C002301E013600432A242FBD30DF007
:10074000B7FA00F0F3FF704700000824000000240F
:10075000B41C002488360108B81C0024C089022477
:10076000FEE700002749284AD1F8883043F4700397
:1007700010B4C1F88830136803F00F03062B05D8B6
:10078000136823F00F0343F0070313601F4B00248B
:100790001F4A19681C4841F0010119601C61196861
:1007A0000A401A6003681B0705D5036823F00F038E
:1007B00043F007030360154B00221649164C1748F7
:1007C0009A61DA611A629C62D86219635A6399630A
:1007D000DA6319645A641868114C20F480201149B6
:1007E00018601A6623681940B1F1005F03D20E4BFE
:1007F0000122C3F808210D4B43F2D2025DF8044BED
:100800001A60704700ED00E00020005200440258DA
:100810007FEDF6EA80020101000202020000FF0102
:100820000010005C0000FFFF0080005100400052FB
:10083000504B1B6903F0380330B4182B0ED8DFE897
:1008400003F00D0D0D0D0D0D0D0D740D0D0D0D0D98
:100850000D0D760D0D0D0D0D0D0D2A00454B464A63
:100860001B68C3F3C103DA40424B444899699B6952
:10087000C1F30321424C03F00F0310F801C0C35C25
:1008800022FA0CF23F4903F01F030A6022FA03F335
:10089000236030BC7047374B996A9C6ADD6A14F458
:1008A0007C7F586BC4F30512DED0C0F3CC0005F09A
:1008B000010501F0030105FB00F0012907EE900A94
:1008C000F8EEE77A4FD0022933D0186807EE102AE5
:1008D00029491B6BC0F3C102B8EEC75ADFED2A5A93
:1008E000C3F30803D140B7EE007A06EE903A06EE65
:1008F000101AF8EEE66AB8EEC66A76EE876A86EEF9
:10090000057AE7EEA56A27EE267A1A4B1B6BC3F32E
:100910004623013307EE903AF8EEE77AC7EE276AEE
:10092000FCEEE67A17EE902A9EE7184A9CE7184AF2
:100930009AE707EE102A9FED175AF8EEC76A1B6B6D
:1009400085EE267A9FED106AC3F3080306EE903A0F
:10095000F7EE005AF8EEE66A76EEA56AE7EE866AEA
:1009600027EE267AD1E707EE102A9FED0B5AF8EE14
:10097000C76AE4E7004402580090D003B0DE0008E4
:1009800004000024000000240000003900093D009C
:1009900040787D0120BCBE4B0024744A294B84B0B2
:1009A000994231D0284B994220D0284B994239D0D6
:1009B000274A1368D90717D4264BD3F8F41041F40B
:1009C0000041C3F8F410D3F8F43003F40043039368
:1009D000039B136823F002031360136843F00103C1
:1009E000136013681B07FCD504B07047194BD3F88C
:1009F000D82042F02002C3F8D820D3F8D83003F032
:100A000020030193019BD3E7124BD3F8D82042F087
:100A10002002C3F8D820D3F8D83003F02003009385
:100A2000009BC5E7A3F5E053D3F8E02042F08072C5
:100A3000C3F8E020D3F8E03003F080730293029B08
:100A4000B6E700BF002002400021024000600258CB
:100A5000003C005800440258F0B5584C87B00025BF
:100A600001270646214604A8FFF798FF03232A46DC
:100A7000534904A8CDE90255CDE9007506F0FAFA0C
:100A800003233A464E4904A8CDE90255CDE9007545
:100A900006F0F0FA03232A464A4904A8CDE9025594
:100AA000CDE9007506F0E6FA0323464904A81A4684
:100AB000CDE90255CDE9007506F0DCFA42494FF068
:100AC000FF333580C6E90155C6E90355A560E560E9
:100AD0002561E5616361A3618D60A2683B4B42F4CF
:100AE0004072A2608A6822F4403242F400328A6086
:100AF000E26842F40052E260E26842F48042E2605E
:100B00002269134043F47F032361236923F4F073C4
:100B100043F48073236123693B432361E36943F416
:100B20008033E361E36943F40033E361E36943F451
:100B30008063E361E36943F40053E361236B23F4CF
:100B4000F86343F480632363236B23F4F83343F4A3
:100B500088332363236B23F4F80343F420132363C4
:100B6000236B23F0F85343F050632363236B23F08C
:100B70000F0343F003032363A36843F08053A36090
:100B80002368DA04FCD5A3680C4943F48033A360DE
:100B9000A36843F00043A3608B68002BFCDB8B68E9
:100BA000064A43F001038B601368DB07FCD59368AA
:100BB00043F00403936007B0F0BD00BF0020024083
:100BC000000002580008025800230240FFFF00FC0A
:100BD000064A13685B0708D50388116C03F003020B
:100BE000013300EB82025160038070470020024015
:100BF0004368B0EE407A0F4A03F6B833DFED0E6A71
:100C000082FB0312DB17C3EB621307EE903AF8EE98
:100C1000E77AF4EEE67AF1EE10FA08D467EEA77AF6
:100C2000DFED066A67EEA67A87EE870A70479FEDCA
:100C3000040A70471F85EB5100002042CDCCCC3D0B
:100C400000000000D0ED017A9FED0E7AF8EEE77A11
:100C5000F4EEC77AF1EE10FA10D4D0ED026AB7EED6
:100C6000007AF8EEE66A86EEA76AF1EEC67A77EECB
:100C7000876A37EE677A86EE870A70479FED020A29
:100C8000704700BF00007A4400000000D0ED047AF5
:100C9000F8EEE77A87EE800A704700BF10B5FF23B1
:100CA000044641604FF416710370103000ED020AE3
:100CB000C4ED030A0AF0D0F90A2104F114000AF085
:100CC000CBF90023A36110BD01707047436810B5D4
:100CD0008B4204462DED028B82B081618DED010ABD
:100CE00029DA591A07EE903A10F8102BB8EEE77A85
:100CF00007EE901A1D4BF8EEE77A33F9221087EED3
:100D0000878A0AF0A9F99DED010A04F11400F7EEB3
:100D1000000A30EEC88AC0EE880A0AF0A5F994ED00
:100D2000037AD4ED027A80FE470A80FE270A02B0D9
:100D3000BDEC028B10BDCA1A07EE103A0A2114301E
:100D400007EE902AB8EEC77AF8EEE77A87EE878A40
:100D50000AF082F99DED010A04F11000F7EE000A95
:100D600070EEC80A0AF080F9D9E700BFC0DE0008BB
:100D7000074A0023DFF824C0064982600261064A60
:100D8000C0F80CC0016043624260C362704700BF9C
:100D900077F9283DFAAAAC3F519403BF77F9A83DF3
:100DA000436A8B420ED007EE901A4162F8EEE77A62
:100DB000C0ED0A7AC0ED057AC0ED067AC0ED077A7B
:100DC000C0ED087A704700BF436AC06A03EB830333
:100DD0005B0090FBF3F000B26428A8BF642070476A
:100DE000C36A4FF47A7290ED060AC918436A90ED0F
:100DF000046A48BF013107EE903A03FB02F290ED1E
:100E00000A7A4910F8EEE76ADFED1D7A20EE060A4D
:100E10009142D0ED035A90ED076AC8BFA6EEE77A7B
:100E200090ED004AD8BFA6EEA77AD0ED057A154A14
:100E3000A7EEA50AC16282FB0312DB17D0ED084AB8
:100E400090ED015AC3EBA203C0ED067A07EE903A8B
:100E5000D0ED025AA6EE040A80ED086AF8EEE77AB1
:100E6000C7FE877AC7FEE67AC0ED057AA4EE850A4A
:100E7000A7EEA50A80ED070A80ED0A0A704700BFB9
:100E8000CDCC4C3D6766666670B505460E4602B130
:100E900011B3941B0F2C0ED8012C286804D094B9E0
:100EA00000236C60035570BD3378037000232868FD
:100EB0006C60035570BD002C13DB601C0FD40BF06D
:100EC0003DF9AC602860224631460CF017FF2868D7
:100ED00000236C60035570BD03480BF043F90BF021
:100EE0003EF902480BF044F9CCDE0008F8DE0008B9
:100EF00010B50446C06904F12403984203D0616A26
:100F000001310BF019F9606804F10C03984203D029
:100F1000E16801310BF010F9204610BD38B51424FA
:100F2000074D013C284606F013FA9620A4B20AF0B9
:100F30001FF9002CF5D10348BDE8384006F010BA7F
:100F4000981E0024A01E002438B51424074D013C2F
:100F5000284606F0FDF99620A4B20AF009F9002C03
:100F6000F5D10348BDE8384006F0FAB9981E0024D0
:100F7000A01E002490F84200704700BF80F8421085
:100F8000704700BF2DE9F04301248BB002270026F3
:100F90004FF003084FF004095749054606F0CEFA12
:100FA0003B460622554904A8CDE90269CDE900482F
:100FB00006F060F83B460722504904A8CDE90269D3
:100FC000CDE9004806F056F83B460C224C4904A8EF
:100FD00005F15409CDE90247CDE9004606F04AF88B
:100FE0003B460D22464904A8CDE90247CDE900461B
:100FF00006F040F83B460F22424904A8CDE90244DE
:10100000CDE9004606F036F83B4642463B4904A887
:101010000DF11808CDE90244CDE9004606F02AF8A2
:101020003246394905F14C0001F0C4FC4FF08041D3
:10103000224605F1440001F0BDFC05F1840002F0F8
:1010400015FF484607F002FD284606F02BFB284610
:1010500006F0F4FB2D4806F063F903462C4A634082
:101060002C48137006F05CF901462B486140074696
:10107000C9B203F077FA384603F094FD03463846C8
:101080003BB903F051FD0346384613B903F01AFD8E
:1010900070B36420214D0AF06BF81620CDF8108053
:1010A0000BF04CF804464FF0000C152684F815C0E0
:1010B00004940FCD206028682D7961600221A26020
:1010C00004AA20614846E3602575CDE9056605F070
:1010D000BFFC04984045CED0069901310BF02CF8A6
:1010E000384603F05FFD03463846002BC9D0D0E7F1
:1010F0000BB0BDE8F08300BF00540040000402586C
:10110000000C025800000258000800409C1D0024FA
:10111000007C0224FC1C0024681F002410DF00084F
:1011200030B5154687B004460F4808F0CFFB0E498E
:101130002AB290B9684608F089FF009A0B49204608
:1011400005F05EFD009802AB984203D00299013190
:101150000AF0F2FF204607B030BD684609F044FAB5
:10116000009A0349EBE700BF681F002428DF00084E
:1011700038DF000870B51446B1F840208EB08C46B8
:10118000134405469AB21BB2002B1ADC0023A1F8C7
:10119000403005F1080315208D4E2B600AF0CEFF7C
:1011A000142304462860C5E90133002303750FCEDC
:1011B000206030686160A260E360206128460EB064
:1011C00070BD84490978002900F0B380132B17DD26
:1011D000142322B2804908A8ACF8403000F0F8FB94
:1011E000089A7E49284605F00BFD08980AAB9842FC
:1011F000E4D00A9901310AF09FFF28460EB070BD75
:10120000013AACF84030122AC3D8DFE812F0D80017
:10121000D000C800C000B800B000A800A00098002E
:101220008A0082005F00530047003B002F0023002C
:101230001B00130022B2684908A800F0A5FB089A19
:101240006749CFE722B2644908A800F079FB089A01
:101250006449C7E7644808F025FA5F4922B203B23F
:1012600008A800F00FFC089A6049BBE75E4808F048
:1012700019FA594922B203B208A800F0E3FB089A10
:101280005B49AFE7584808F00DFA534922B203B260
:1012900008A800F037FC089A5649A3E7524808F01E
:1012A00001FA4D4922B203B208A800F00BFC089ADB
:1012B000514997E74C4808F0F5F9474922B203B283
:1012C00008A800F0A9FB089A4C498BE722B24249D2
:1012D00002A800F04FFC029A434908A8019203F0CB
:1012E0008DFE089B2846019A454905F089FC08981F
:1012F0000AAB984203D00A9901310AF01DFF029807
:1013000004AB98423FF45AAF049901310AF014FF3C
:1013100054E722B2304908A800F014FC089A394971
:1013200060E722B2304908A808F090FF089A3649D1
:1013300058E7082B7FF764AF0923ACF8403022B29E
:10134000294908A808F0F6FD089A30494AE722B270
:10135000254908A808F0DAFD089A2D4942E722B28B
:10136000214908A808F054FE089A2A493AE722B20F
:101370001D4908A808F0F8FD089A274932E722B26B
:10138000194908A808F030FD089A24492AE722B232
:10139000154908A808F04AFD089A214922E722B217
:1013A000114908A808F066FE089A1E491AE722B2F9
:1013B0000D4908A809F076F8089A1B4912E722B2ED
:1013C000094908A808F02EFF089A18490AE700BF43
:1013D00054DF0008007C0224D42A002444DF0008E3
:1013E00078E0000868E00008681F00245CE000085E
:1013F00050E0000844E0000838E000082CE0000855
:101400001CE000080CE00008FCDF0008ECDF00082E
:10141000DCDF0008CCDF0008C0DF0008B0DF000818
:101420009CDF00088CDF00087CDF00086CDF000810
:101430002DE9F04301F14C080C460546404604F105
:1014400044092DED028B8BB001F0FCFA18B9484627
:1014500001F0F8FA60B109F085FE064660480F46D3
:1014600008F030FA4FF47A73C0FB8367C4E90E6763
:10147000404601F0E1FA0646484601F0DDFA94F8EC
:10148000421003460239082900F28B80DFE801F0A0
:1014900029344C545C676F7E050004A832B2504971
:1014A00008F06CFF049806AB984203D0069901310E
:1014B0000AF042FE4A4803F0BDFBB0EE408A4848BD
:1014C00003F0F8FA4749B7EEC87A0090284653EC83
:1014D000172B05F095FB28460BB0BDEC028BBDE841
:1014E000F083284632462146FFF744FE28460BB0DB
:1014F000BDEC028BBDE8F08332B2394904A808F094
:10150000CDFD049A3849284605F07AFB049806ABCD
:101510009842E0D0069901310AF00EFE28460BB041
:10152000BDEC028BBDE8F08302B22D4904A808F09F
:10153000B9FE049A2D49E6E732B2294904A808F019
:101540001DFF049A2A49DEE7284632462146FFF766
:10155000E7FD28460BB0BDEC028BBDE8F08302B27C
:101560001F4904A809F056F8049A2249CBE705F16F
:101570000803214A2846A2F112012B60FFF784FCE0
:1015800028460BB0BDEC028BBDE8F08302B21449D3
:10159000284608F0F1FF28460BB0BDEC028BBDE8F1
:1015A000F08332B203900E4904A808F061FC04985D
:1015B00006AA039B904204D0069901310AF0BCFDB3
:1015C000039B19460022064808F0E6FD05F10803D2
:1015D0000A4A28462B601146FFF756FC7BE700BFFE
:1015E000681F0024DCE0000888E000089CE0000898
:1015F000ACE00008B8E00008DAE000089427010831
:101600002DE9F04F002304460026002700F1540284
:10161000414D4FF47A7828302DED028BC4E90C67E8
:10162000A4F8403004F1200784F8423004F1840328
:101630003A4E87B008EE102A08EE903A05F096FE72
:10164000D4E90CA909F08EFD504571EB0901F7D3DF
:1016500009F088FD6430DFF8D09041F10001C4E961
:101660000C0101E04D4517D094F8421059F8040BD5
:1016700006F09EFB0028F5D0384605F071FE09F013
:1016800071FD82468B46304608F01CF94D45C0FB83
:1016900088ABC4E90EABE7D1304608F043F9014608
:1016A0001F48A1F10301B1FA81F1490906F07EFB5F
:1016B00094F8429021466846FFF7BAFE18EE100AE9
:1016C0006A46494605F0C4F9009802AB984203D037
:1016D000029901310AF030FD18EE900A02F0CEFCBA
:1016E000304603F00FF90F4B1B78002BA8D109F0FF
:1016F00039FDD4E90E23824273EB0101A0D294F8A4
:101700004230012B04D00A2B02D0002384F842304F
:10171000384605F02BFE93E728E10008681F0024F7
:10172000981D0024007C0224F4E0000808B509F0AC
:101730002FFD09F01BFE0348FFF724FC0148FFF7CB
:101740005FFF00BF781E002438B50A4905465430B3
:10175000094C03F0B5FC204605F0E2FD0028FAD064
:10176000284606F0D7F805F12800BDE8384005F016
:10177000F7BD00BFF0E000087C1D0024F0B5FF219C
:10178000444C85B0002501234FF0FF32217104F154
:10179000200041490327C4F80E20C4F81220E28239
:1017A0000F22E1613D493E4ECDE90235CDE90035DC
:1017B00005F060FC012331460522009304F1280066
:1017C0000395CDE9015305F055FC314601230A226A
:1017D00004F15400CDE90255CDE9005705F04AFC6B
:1017E000314601230B2204F15C00CDE90255CDE91D
:1017F000005705F03FFC314601230C2204F1640040
:1018000001970095CDE9025505F034FC04F1A803D9
:1018100004F1900104F1C402C4F8A03004F1DC0327
:10182000204884F89050C4F8A45084F8A85084F854
:10183000C45084F8DC50C4E92215C4E92F25C4E95A
:10184000353506F0BFFC184806F00AFC174806F0CC
:1018500045FA174806F01AFB164806F081FA1648B2
:1018600006F084FC154806F09BFB154806F02AFCA0
:10187000144806F0C9FB144806F03CFB134806F078
:1018800063FB134806F048FA124805B0BDE8F04083
:1018900006F0C2BC781E002440787D01000C02587E
:1018A00000040258B81D0024581D0024F81C002410
:1018B000381D0024D81D0024981D0024581E002423
:1018C000781D0024181E0024D81C0024F81D0024B4
:1018D000181D0024381E002410B5054C04F1B80072
:1018E000FFF706FB04F18400FFF702FB10BD00BF09
:1018F000781E0024B0F90400704700BFB0F9000062
:10190000704700BFB0F90200704700BF02EB8202CF
:1019100001EB420100B5D1F80EC0D1F80AE04A8AC5
:10192000C0F800E0C0F804C002815DF804FB00BF0D
:10193000B0F90600704700BFB0F90800704700BF5B
:101940000B88B6EE007ADFED0E7A1A4412B2AF2A97
:10195000B8BFAF22F52AA8BFF52206EE902AF8EE0E
:10196000E66A10B5E6EE877A04460A800549B7EEC6
:10197000E77A53EC172B05F043F9204610BD00BF62
:101980000000FEC228E100084B88B6EE007ADFEDC9
:101990000E7A1A4412B2AF2AB8BFAF22F52AA8BFF6
:1019A000F52206EE902AF8EEE66A10B5E6EE877AA2
:1019B00004464A800549B7EEE77A53EC172B05F049
:1019C0001FF9204610BD00BF0000FEC228E100083C
:1019D0008B88B6EE007ADFED0E7A1A4412B2AF2A87
:1019E000B8BFAF22F52AA8BFF52206EE902AF8EE7E
:1019F000E66A10B5E6EE877A04468A800549B7EEB6
:101A0000E77A53EC172B05F0FBF8204610BD00BF1A
:101A10000000FEC228E100088C46094951F8231055
:101A200003EB83030CEB4303B3F812C0624412B21E
:101A300010B504465A8205F0E3F8204610BD00BFF9
:101A400080E1000801F10A0C0D4951F8231003EB65
:101A500083035B0010B53CF803E00446724412B205
:101A6000B2F5487FB8BF4FF44872B2F5966FA8BF81
:101A70004FF496622CF8032005F0C2F8204610BD02
:101A800080E1000801F10A0C0D4951F8231003EB25
:101A900083030CEB4303B3F802C0624412B2B2F505
:101AA000487FB8BF4FF44872B2F5966FA8BF4FF4A5
:101AB000966210B504465A8005F0A2F8204610BD83
:101AC00080E1000801F10A0C0D4951F8231003EBE5
:101AD00083030CEB4303B3F804C0624412B2B2F5C3
:101AE000487FB8BF4FF44872B2F5966FA8BF4FF465
:101AF000966210B504469A8005F082F8204610BD23
:101B000080E1000801F10A0C0D4951F8231003EBA4
:101B100083030CEB4303B3F806C0624412B2B2F580
:101B2000487FB8BF4FF44872B2F5966FA8BF4FF424
:101B3000966210B50446DA8005F062F8204610BDC2
:101B400080E100080B46C9880A44094912B2B2F57F
:101B5000166FB8BF4FF41662B2F52F6FA8BF4FF4DF
:101B60002F6210B50446DA8005F04AF8204610BD11
:101B70007CE100080B4609890A4440F2145112B274
:101B8000B2F52F7FB8BF4FF42F728A42A8BF0A4622
:101B9000034910B504461A8105F032F8204610BDFD
:101BA0007CE1000870B5742304464FF4E0612048DE
:101BB000E518204E2A4605F0E1FB7422294620460E
:101BC0000CF09CF8236FB34200D170BD7422FF214A
:101BD00028460CF00BF8184B18481949194A266783
:101BE0002362A36684E80B0017481849C4E9033050
:101BF000E16100F55C00D231C4E90903C4E90B31AD
:101C000000F5DC001249C4E90D30E1644FF448618D
:101C10001048A4F86C10C4E90533C4E90F33C4E9D3
:101C20001123C4E91433C4E91623C4E9180370BDB1
:101C3000781E002444554221E803E803B500C7009C
:101C4000ED003D0A7805E803E8035401AE01E8031E
:101C5000E8035203E80300052DE9F8434FF4E0647C
:101C60000027DFF84080054640F2747900F17306E2
:101C700003E00134A4B24C4512D02A4616F801EF15
:101C800015F801CB214601234046E645F1D086F800
:101C900000C005F0EDFB7B1C0A2F1BB21F46E8DDE0
:101CA000BDE8F883781E0024094B994200D07047A4
:101CB000084B82B0D3F8E82042F00052C3F8E82085
:101CC000D3F8E83003F000530193019B02B0704752
:101CD0000074004000440258184B84B099421FD051
:101CE000174B99420ED0174BD3F8A82042F00102AF
:101CF000C3F8A820D3F8A83003F001030393039B93
:101D000004B070470F4BD3F8D82042F00202C3F85A
:101D1000D820D3F8D83003F002030293029BE2E705
:101D2000084BD3F8D82042F00102C3F8D820D3F8EA
:101D3000D83003F001030193019BD4E70000024077
:101D40000004024000440258002A06EE901AD0ED2A
:101D5000005AB8BF0132B8EEE66B9FED877B521098
:101D600026EE076B07EE902AB8EEE77B10B586EEFD
:101D7000070B04462DED028BF7EEC08BF4EE685A8C
:101D8000F1EE10FA00F0F280C0ED008AB0EE680AC1
:101D90000AF022FCB0EE408AB0EE680A0AF0E0FCDD
:101DA000F7EE007A9FED766ABFEE007A9FED753A06
:101DB00004F19000F0EE674ADFED730AB0EE675A67
:101DC000DFED723AF0EE672ADFED716AE8EE064A5F
:101DD0009FED701AA8EE035ADFED6F1AE8EE202A85
:101DE0008022F0EE675A0021F0EE678AB0EE472AB3
:101DF00087EEA44AC7EE854AE8EE235AE8EE268A23
:101E0000A8EE062A87EEA26AF0EE472A87EEA55AC8
:101E1000E8EE032AB0EE473AC7EEA85AA8EE233AF6
:101E2000F0EE473A24EE022A64EEA22AE8EE263AC1
:101E3000F0EE476A84ED022AB0EE672AC4ED072A65
:101E4000F0EE672AE8EE206AA8EE012AE8EE212AE1
:101E500065EEA33A25EE033A66EE266AC4ED113A22
:101E600084ED0C3AB0EE473AC7EEA23AC4ED166ADA
:101E7000C7EE826AA8EE013A77EEC07A30EE000A29
:101E8000A8EE217A67EE850A20EE051A65EEA72AEC
:101E900065EE801AC4ED0E0A27EE862A84ED0B1A31
:101EA000F6EE000AC4ED132AC4ED101A60EE062AFD
:101EB00027EEA61A84ED182A26EE833A60EE261A3B
:101EC000C4ED152A84ED1D1A27EEA32A27EE841AE5
:101ED00084ED1B3A27EEA43AC4ED1A1A67EEA07AF5
:101EE00060EE041A84ED041A60EE232A84ED093AA8
:101EF00027EE844A27EE855AC4ED011A65EEA75AEB
:101F000027EE866A84ED034A67EEA66A84ED054AE9
:101F100020EE240A84ED0D5A67EEA44A84ED0F5A90
:101F200067EEA37AC4ED125A27EE237A84ED060AEF
:101F3000C4ED084AC4ED0A4AC4ED145A84ED176A88
:101F400084ED196AC4ED1C6AC4ED1E6AC4ED217AE1
:101F500084ED222AC4ED237AC4ED1F2A84ED207A71
:101F6000BDEC028BBDE810400BF040BEBDEC028B17
:101F700010BD00BFAFF30080182D4454FB21094071
:101F8000A24DE53D561AA93EEBC2583F4033083FEB
:101F9000F304353F57A2713FEC637E3F0000000021
:101FA000002A06EE901AD0ED005AB8BF0132B8EE02
:101FB000E66B9FED877B521026EE076B07EE902AAB
:101FC000B8EEE77B10B586EE070B04462DED028BCD
:101FD000F7EEC08BF4EE685AF1EE10FA00F0F280E2
:101FE000C0ED008AB0EE680A0AF0F6FAB0EE408A58
:101FF000B0EE680A0AF0B4FBF7EE007A9FED766A5D
:10200000BFEE007A9FED753A04F19000F0EE674A5A
:10201000DFED730AB0EE675ADFED723AF0EE672A31
:10202000DFED716AE8EE064A9FED701AA8EE035ADA
:10203000DFED6F1AE8EE202A8022F0EE675A0021C9
:10204000F0EE678AB0EE472A87EEA44AC7EE854ACB
:10205000E8EE235AE8EE268AA8EE062A87EEA26A60
:10206000F0EE472A87EEA55AE8EE032AB0EE473A8B
:10207000C7EEA85AA8EE233AF0EE473A24EE022A19
:1020800064EEA22AE8EE263AF0EE476A84ED022AD0
:10209000B0EE672AC4ED072AF0EE672AE8EE206A60
:1020A000A8EE012AE8EE212A65EEA33A25EE033ACE
:1020B00066EE266AC4ED113A84ED0C3AB0EE473A6A
:1020C000C7EEA23AC4ED166AC7EE826AA8EE013ADC
:1020D00070EE277A30EE000AA8EE217A67EEC50A84
:1020E00020EE051A67EEE52A65EE801AC4ED0E0AA9
:1020F00027EEC62A84ED0B1AF6EE000AC4ED132A69
:10210000C4ED101A60EE062A27EEE61A84ED182AAE
:1021100026EE833A60EE261AC4ED152A84ED1D1AC8
:1021200027EEE32A27EEC41A84ED1B3A27EEE43AA1
:10213000C4ED1A1A67EEA07A60EE041A84ED041A50
:1021400060EE232A84ED093A27EE844A27EE855A69
:10215000C4ED011A65EEA75A27EE866A84ED034A9C
:1021600067EEA66A84ED054A20EE240A84ED0D5A36
:1021700067EEA44A84ED0F5A67EEA37AC4ED125AB3
:1021800027EE237A84ED060AC4ED084AC4ED0A4A14
:10219000C4ED145A84ED176A84ED196AC4ED1C6A03
:1021A000C4ED1E6AC4ED217A84ED222AC4ED237A9F
:1021B000C4ED1F2A84ED207ABDEC028BBDE81040EF
:1021C0000BF014BDBDEC028B10BD00BFAFF300805F
:1021D000182D4454FB210940A24DE53D561AA93E55
:1021E000EBC2583F4033083FF304353F57A2713FDD
:1021F000EC637E3FD0ED057A90ED277AD0ED265A3C
:1022000027EE876AD0ED242A67EEA55AD0ED253A4D
:10221000D0ED047A90ED035AE7EEA25A90ED2B4AE6
:10222000A7EEA36AD0ED0A7AD0ED284AD0ED296A4C
:1022300090ED013AC0ED262AE0EE055A90ED097ABC
:10224000A0EE856AD0ED2D1A24EE275AC0ED273A6C
:10225000D0ED2C3A90ED082AA6EE875A90ED0E1A92
:10226000E3EE245A80ED240AA3EE266AC0ED250A87
:1022700090ED0D3AC0ED2B6AD0ED076A2DED048B81
:10228000D0ED2A8A90ED028A68EEA72AD0ED067A70
:10229000E8EE285AC0ED2A4AA8EE046AE4EE872A3E
:1022A00090ED2E7AA1EEA75AC0ED285AE3EEA72AA8
:1022B000D0ED2F7A80ED296AD0ED0F0AA7EEA65A4D
:1022C00090ED304A90ED0B8AD0ED314AE7EE262AA8
:1022D000C0ED2E3A67EE206A90ED130A27EEA07A41
:1022E000D0ED320AD0ED147AA2EE065AE3EE816AFE
:1022F00090ED0C6AA1EE817A90ED331A60EEA73A68
:10230000D0ED378AE2EE252AC0ED2F1A61EE275A6A
:10231000D0ED361AE4EE003AD0ED197AE4EE086A10
:10232000C0ED334AA4EE887A90ED118AE4EE805A2B
:1023300090ED340A61EEA74A80ED2D5A90ED122AF5
:1023400090ED3A9AE0EE866AD0ED350AA1EE067A73
:10235000C0ED2C2A28EEA76AD0ED107A90ED381A3D
:10236000E0EE273A80ED324AE0EEA75A90ED174AA8
:10237000F0EE667AD0ED156AA5EE037A90ED185A64
:10238000E2EE837AE1EE883AD0ED391AA0EE856A62
:10239000E0EE054AE8EE885A80ED317AD0ED3B8ACE
:1023A000C0ED307AE7EE823A90ED168AD0ED1E7AD3
:1023B000A1EEA66A80ED360AE1EE264A29EE275AFA
:1023C00090ED1D0A68EEA76AD0ED3C2AC0ED3B1ADD
:1023D000E7EE025AA1EE005A90ED3E7AE1EE806AF5
:1023E000D0ED1A1AA8EE886A90ED3F0AD0ED237A54
:1023F000E9EE084AC0ED370AC0ED355AA2EEA15AFF
:10240000D0ED1B0A90ED3D3AA5EE846A80ED3A1AB4
:1024100090ED221AE3EE216AE3EE844AC0ED343AED
:1024200090ED414AF0EE455AD0ED1F3AC0ED3E2AFC
:1024300090ED1C2AE7EE205A90ED205A27EE877A7D
:1024400080ED3F3A67EE807AD0ED211AE0EE206A07
:10245000C0ED384AA1EE227AD0ED402AE1EE037AAF
:1024600090ED421A90ED433AE4EE825A80ED396ADB
:10247000C0ED422AE6EE026AA3EEA27AE3EE847A87
:10248000C0ED3C5AC0ED3D6AA5EE017A80ED434AAD
:10249000E5EE037ABDEC048BA1EEA57AE1EEA67A17
:1024A000B0EE470A80ED407AF0EE670AC0ED417A5F
:1024B000704700BFD0ED007AF4EE407A10B5F1EE2F
:1024C00010FA2DED028B82B0019124D007EE901A04
:1024D000B7EE007AF6EE008A0446F8EEE77A87EE69
:1024E000278A68EE288A88EE800A09F0A1FEC8EEE5
:1024F000806AB0EE007AF0EE487AB0EE486AE6EE16
:10250000877A96EE876AC8EE276A86EE277AC4ED48
:10251000016A84ED027A02B0BDEC028B10BD00BFEF
:1025200090ED037A90ED046AD0ED027A30EE077AEE
:1025300080ED030A27EE860AD0ED016AA7EE260A8F
:1025400080ED040A704700BFF8B541F6022741F25A
:102550000426B7EE000A04460025074406442DED84
:10256000048B9FED258BDFED269A9FED269A01E0E7
:102570000AF0F6F86A08F0EE497A6B00013502F0CD
:10258000553203F0AA3307EE105AE0EE697AB5F53A
:10259000007F42EA0302B8EEC70A4FEA92034FEA0D
:1025A000820230EE000A03F0333302F0CC32B7EE91
:1025B000C00A43EA02034FEA131220EE080B4FEA67
:1025C000031302F00F3203F0F03342EA0302B7EED6
:1025D000C00B4FEA022303F0FF2343EA1223C3F3A5
:1025E000C81327F8023FE6EC017AC1D10023BDEC05
:1025F000048B2380F8BD00BF93F6929D922E793F05
:102600001F85EB3E713D0A3FB0F90030B3F5007F06
:1026100007DA00EBC3020133038082ED010AC2ED49
:10262000020A704741F2042200F580510346024439
:102630002DE9F043864693ED017A0833F2EC016A06
:10264000D3ED007A27EE267A67EEA67A03ED017ABB
:102650009942C3ED007AEED10926DFED643A9FED91
:10266000643A4FF40078DFED632A63EE237A444640
:1026700063EEE33A4FEA6808B8F1000FE3EE033A7D
:10268000B0EE633A77EEA73A4CDD0027F7EE004A4A
:10269000B0EE624A1FFA88F5A4B2BC461FFA8CF26B
:1026A00000EBCC015319224491ED017A9BB2D1ED9C
:1026B000027A1FFA82F900EBC303B9F5007F0FFA23
:1026C00082FC93ED016AD3ED026A37EE465A77EE4B
:1026D000E65A37EE067A77EEA67A24EEE56A65EEDC
:1026E000246A81ED017AC1ED027AB0EE467AF0EE0D
:1026F000667AA5EE047AE5EE847A83ED017AC3ED7D
:10270000027ACBD3013764EEE37A64EE834A0FFAA0
:1027100087FCE4EE037AE045E3EE844A02DDB0EEA6
:10272000674ABBE7013EA0D141F6022502460544B7
:1027300035F9021F33B20136994200EBC10407DDBF
:102740006768516893685760A76897606160A36085
:10275000B6F5007F02F10802EAD141F2020600F567
:1027600000674EF2902506449EED026ADEED016A96
:10277000F0EEC67AB0EEE67A87FE277AB5EE407ABA
:10278000F1EE10FA2DD0C6EE077A01204EF290221B
:10279000034686EE876A67EEA76AE6EE066AF1EE02
:1027A000E67A67EE877AFDEEE77A17EE904A03E065
:1027B000BCF12E0F08B216D01344411C2A44A34288
:1027C0001FFA81FCF4DD36F9023F0EF1080E1B18EA
:1027D00048BF013377454FEA63033380C4D1BDE876
:1027E000F0830120EFE76046EDE700BF880FC9BB2B
:1027F000C4FE7F3F00000000B0F90030B3F5007F59
:1028000010B5044603D041F20400204410BDFFF788
:1028100009FF002341F204002380204410BD00BFC3
:1028200010B5002104464FF4407200F52C70218051
:102830000BF0DCF94FF6FF73A4F8A43210BD00BF13
:10284000B0F9A4328B420DD007EE901ADFED066A84
:10285000A0F8A412F8EEE77AB1EEE77AC6EE877A2E
:10286000C0EDAB7A704700BF0AD7233CB0F9A42271
:10287000B0EE407AF0EE606A002A66DDB0F9003012
:102880004032DFED346A00EBC301013312B2B0EE27
:10289000667AD1ED014A1BB210B5C1ED020A9A4227
:1028A000D8BF002381ED010A00F52C7190EDAA5AE2
:1028B00000F56C7EB0F9A642A0EE005A038000EB52
:1028C000C40CA4B22346A4EEE45A80EDAA5ACCED7F
:1028D000ED0A8CEDEC0A8C4603F03F02FCEC017A29
:1028E000013300EBC202E6459BB2D2EDEC5A92ED09
:1028F000ED6AA7EEA57AE7EE866AEDD174EEC77AA7
:10290000D0EDAB5A9FED146A234667EEA57A35EEFB
:10291000065AC7EE855A03F03F02D1ED007A013323
:1029200000EBC2029BB292EDEC6AE5EE867AE1EC36
:10293000017A8E45EFD1631CB0EE470AF0EE660ACD
:1029400003F03F03A0F8A63210BDB0EE470AF0EE48
:10295000660A7047000000000000003483688B4264
:1029600009D00029816007DD4FF08063090303600F
:1029700091FBF2F28280704749424FF48063F5E7A1
:1029800082884388B0F800C01344094962441BB2EE
:1029900012B24380C3F30B030280C2F30B0201EBBC
:1029A000830301EB8201D3ED000A91ED000A704729
:1029B000A8E1000870B50C460646154608F0E4FD8F
:1029C0000023346023602362A360A36135B3226ACD
:1029D000164B42F020022262A268134043F0020329
:1029E000A360A1690120124A002521F00301114BC7
:1029F0000143A161A16921F4407141F48071A16199
:102A0000A1690A4042F03002A261A269134043F476
:102A10004053A36165626061206070BDA268034B92
:102A2000134043F00103A360DBE700BFF8FFFEFFA4
:102A30008FFFFEFFFF8FFFFE03680022586A5A6275
:102A4000704700BF0368586A003818BF01207047FC
:102A500010B582B004460848019106F0F3FD024625
:102A600001992046B2FA82F25209D20104F0C8F864
:102A7000204602B010BD00BF681F002410B50446F8
:102A8000024A04F0BDF8204610BD00BFA82101088D
:102A900010B582B004460848019106F0D3FD024605
:102AA00001992046A2F10202B2FA82F2520904F020
:102AB000A7F8204602B010BD681F002410B50446D8
:102AC000002204F09DF8204610BD00BF70B50E4CEA
:102AD00086B005460E460DF1040C0FCCACE80F0095
:102AE00023680A48CCF8003006F0DCFD06AA03464D
:102AF0003146284602EB430333F9142C04F080F8E6
:102B0000284606B070BD00BFE8DD0008681F00243D
:102B100070B5094E04460D460021304607F022F9F3
:102B20000021304606F0B6FE29460246204604F053
:102B300067F8204670BD00BF681F002470B5094EBD
:102B400004460D460121304607F00CF901213046BC
:102B500006F0A0FE29460246204604F051F8204621
:102B600070BD00BF681F002410B582B0044608483D
:102B7000019106F09DFE0199024618B1012814BF8B
:102B800002220122204604F03BF8204602B010BD8C
:102B9000681F002430B50D4B85B004460D46EC4649
:102BA0000FCBACE807000A48ACF8003006F08EFE08
:102BB00004AA03462946204602EB430333F9102CAE
:102BC00004F01EF8204605B030BD00BFFCDD000853
:102BD000681F002410B5044682B00648019102F037
:102BE00001F801990246204604F00AF8204602B096
:102BF00010BD00BF681F002470B505460E4602B127
:102C000011B3941B0F2C0ED8012C286804D094B952
:102C100000236C60035570BD33780370002328686F
:102C20006C60035570BD002C13DB601C0FD409F0E1
:102C300085FAAC602860224631460BF05FF82868C0
:102C400000236C60035570BD034809F08BFA09F04E
:102C500086FA024809F08CFACCDE0008F8DE00089B
:102C6000F8B500F10807076039B3044608460E4678
:102C7000FDF746FD0F2805460ED8012805D088B976
:102C80000023656020467B55F8BD3378204665609B
:102C9000237200237B55F8BD013009F04FFA074637
:102CA000A560206038462A4631460BF027F8276891
:102CB0000023656020467B55F8BD014809F052FAB3
:102CC000CCDE0008F8B500F10807076039B3044608
:102CD00008460E46FDF714FD0F2805460ED80128BC
:102CE00005D088B90023656020467B55F8BD337850
:102CF00020466560237200237B55F8BD013009F042
:102D00001DFA0746A560206038462A4631460AF07B
:102D1000F5FF27680023656020467B55F8BD014814
:102D200009F020FACCDE0008F8B504460E46184833
:102D3000002104F1080702F011F827602EB3304695
:102D4000FDF7DEFC0F2805460ED8012805D088B90E
:102D50000023656020467B55F8BD337820466560CA
:102D6000237200237B55F8BD013009F0E7F90746CF
:102D7000A560206038462A4631460AF0BFFF276822
:102D80000023656020467B55F8BD024809F0EAF94A
:102D9000681F0024CCDE0008F8B504460E4618482B
:102DA000012104F1080701F0D9FF27602EB3304656
:102DB000FDF7A6FC0F2805460ED8012805D088B9D6
:102DC0000023656020467B55F8BD3378204665605A
:102DD000237200237B55F8BD013009F0AFF9074697
:102DE000A560206038462A4631460AF087FF2768EA
:102DF0000023656020467B55F8BD024809F0B2F912
:102E0000681F0024CCDE00082DE9F04788B00DF1E2
:102E10001008CDF80880002A68D0064610460F46F4
:102E20001546FDF76DFC0F28044647D8012840D011
:102E3000002853D143464FF0000A039403F804A03E
:102E4000029D0AF02FFFD0F800900AF02BFF0A2213
:102E5000C0F800A001A928460AF094FE019B044690
:102E60009D423DD00AF01EFF0368222B3BD00AF0A2
:102E700019FF03686BB37F2C1E48CCBF00210121D2
:102E800006F054FE0298404503D00499013109F040
:102E900053F9184806F0D6FB024639463046B2FAD6
:102EA00082F25209D20103F0ABFE304608B0BDE811
:102EB000F0872B788DF810304346BCE7013009F0DD
:102EC0003DF904940290294622460AF017FF029B1E
:102ED000B1E70AF0E7FEC0F80090CCE74046F2E721
:102EE000054809F042F9044809F045F9034809F09A
:102EF00039F900BF681F0024B0210108CCDE0008AA
:102F00002DE9F04788B00DF11008CDF80880002AAF
:102F100069D0064610460F461546FDF7F1FB0F280F
:102F2000044648D8012841D0002854D143464FF0E8
:102F3000000A039403F804A0029D0AF0B3FED0F83F
:102F400000900AF0AFFE0A22C0F800A001A92846AE
:102F50000AF018FE019B04469D423ED00AF0A2FEF4
:102F60000368222B3CD00AF09DFE036873B3012C4A
:102F70001E480CBF0221012106F0D8FD02984045F1
:102F800003D00499013109F0D7F8184806F05AFB2C
:102F9000024639463046A2F10202B2FA82F25209E2
:102FA00003F02EFE304608B0BDE8F0872B788DF890
:102FB00010304346BBE7013009F0C0F8049402909A
:102FC000294622460AF09AFE029BB0E70AF06AFE02
:102FD000C0F80090CBE74046F2E7054809F0C5F895
:102FE000034809F0C8F8034809F0BCF8681F00243A
:102FF000B0210108CCDE00082DE9F04788B0154665
:1030000006460F460DF110083748002106F0AAFECB
:10301000CDF80880002D64D02846FDF771FB0F28FD
:10302000044646D801283FD0002852D143464FF0ED
:10303000000A039403F804A0029D0AF033FED0F8BE
:1030400000900AF02FFE0A22C0F800A001A928462D
:103050000AF098FD019B04469D423CD00AF022FEF6
:103060000368222B3AD00AF01DFE036863B31E48A2
:103070002246002106F060FE0298404503D00499E4
:10308000013109F059F80021174806F06BFE0021C4
:10309000154806F0FFFB39460246304603F0B0FD06
:1030A000304608B0BDE8F0872B788DF810304346E5
:1030B000BDE7013009F042F8049402902946224607
:1030C0000AF01CFE029BB2E70AF0ECFDC0F800908B
:1030D000CDE74046F2E7054809F047F8034809F014
:1030E0004AF8034809F03EF8681F0024B821010897
:1030F000CCDE00082DE9F04788B00DF11008CDF8BE
:103100000880002A6CD0064610460F461546FDF78B
:10311000F7FA0F28044647D8012840D0002857D195
:1031200043464FF0000A039403F804A0029D0AF0FE
:10313000B9FDD0F800900AF0B5FD0A22C0F800A051
:1031400001A928460AF01EFD019B04469D4241D07C
:103150000AF0A8FD0368222B3FD00AF0A3FD036804
:103160008BB30298404503D00499013108F0E4FF85
:103170002CB3012C02D11C4806F032FE1A4806F08E
:1031800097FB024618B1012814BF022201223046E3
:10319000394603F035FD304608B0BDE8F0872B789E
:1031A0008DF810304346BCE7013008F0C7FF0494A7
:1031B0000290294622460AF0A1FD029BB1E70A4887
:1031C00006F00AFEDAE70AF06DFDC0F80090C8E7E5
:1031D0004046EEE7054808F0C8FF044808F0CBFF7A
:1031E000034808F0BFFF00BF681F0024B02101089A
:1031F000CCDE00082DE9F04788B00DF11008CDF8BD
:103200000880002A00F08A80064610460F461546C0
:10321000FDF776FA0F28044654D8012833D0002849
:1032200074D143464FF0000A039403F804A0029DB2
:103230000AF038FDD0F800900AF034FD0A22C0F8F8
:1032400000A001A928460AF09DFC019B04469D426E
:103250005ED00AF027FD0368222B5CD00AF022FD25
:103260000368002B39D00298404503D004990131FE
:1032700008F062FF601E06280ED8DFE800F009386B
:1032800033423D0D33002B788DF810304346C9E7AB
:103290000521244806F06EFD234B02AC0FCB07C47A
:1032A0002048238006F012FB08AA03463946304620
:1032B00002EB430333F9182C03F0A2FC304608B0AC
:1032C000BDE8F087013008F039FF049402902946E8
:1032D00022460AF013FD029BA4E70AF0E3FCC0F8C3
:1032E0000090C0E700210F4806F044FDD4E7062116
:1032F0000C4806F03FFDCFE703210A4806F03AFDEF
:10330000CAE70421074806F035FDC5E74046DEE779
:10331000064808F02AFF054808F02DFF044808F089
:1033200021FF00BF681F0024FCDD0008B021010858
:10333000CCDE00082DE9F04788B00DF11008CDF87B
:103340000880002A00F0A180064610460F46154668
:10335000FDF7D6F90F28044657D8012835D00028A4
:1033600040F08B8043464FF0000A039403F804A01A
:10337000029D0AF097FCD0F800900AF093FC0A2214
:10338000C0F800A001A928460AF0FCFB019B0446F6
:103390009D4274D00AF086FC0368222B72D00AF09A
:1033A00081FC0368002B3BD00298404503D0049970
:1033B000013108F0C1FE601E08280FD8DFE800F0D8
:1033C0000A58534E49443F3A35002B788DF8103057
:1033D0004346C8E700212E4806F0C0FB2D4D02AC45
:1033E0000FCD0FC42B682A48236006F05BF908AAAA
:1033F00003463946304602EB430333F9182C03F0F9
:10340000FFFB304608B0BDE8F087013008F096FEBB
:1034100004940290294622460AF070FC029BA2E71F
:103420000AF040FCC0F80090BEE70921184806F0F9
:1034300095FBD3E70821164806F090FBCEE707215D
:10344000134806F08BFBC9E70621114806F086FBFE
:10345000C4E705210E4806F081FBBFE704210C48B4
:1034600006F07CFBBAE70321094806F077FBB5E7D5
:103470000221074806F072FBB0E74046CAE706485B
:1034800008F073FE044808F076FE044808F06AFE6F
:10349000681F0024E8DD0008B0210108CCDE000828
:1034A0002DE9F04F00F1080587B00560002900F014
:1034B000CF84044608460F46FDF722F90F2806463A
:1034C00000F2CB81012800F07A81002840F0B88416
:1034D0002B4600216660BC48995506F0DBF9BB49D4
:1034E0000246684603F08CFB2668DDF80480D4F8B9
:1034F0000490AE42DDF800B008EB090700F07281DD
:10350000A3689F4200F27281B8F1000F0AD0B8F1AF
:10351000010F06EB090000F05584424659460AF0B7
:10352000EDFB266800236760F35502AB00989842D4
:1035300003D00299013108F0FFFD66686FF0004387
:103540009B1B042B40F27E842368771D9D4200F074
:103550008F81A268974200F28F819D4A9919106865
:10356000985113790B71D4F800800023676008F834
:1035700007306FF0004366689B1B042B40F26284A7
:103580002368771D9D4200F0A581A268974200F252
:10359000A581904A99191068985113790B71D4F844
:1035A00000800023676008F807306FF00043676809
:1035B0009F4200F0478423687E1C9D4200F0BC813E
:1035C000A268964200F2BC813022DA55D4F800801D
:1035D0000023666008F806306FF0004367689F427A
:1035E00000F0308423687E1C9D4200F0D381A268E5
:1035F000964200F2D3813022DA55D4F800800023BD
:10360000666008F806306FF0004366689B1B022B6B
:1036100040F218842368F71C9D4200F0E981A268FB
:10362000974200F2E9816C4A99191088985393786F
:103630008B70D4F800800023676008F807306FF0C3
:10364000004367689F4200F0FD8323687E1C9D4213
:1036500000F00082A268964200F200823022DA5521
:10366000D4F800800023666008F806306FF000434D
:1036700067689F4200F0E68323687E1C9D4200F04D
:103680001782A268964200F217823022DA55D4F8E7
:1036900000800023666008F806306FF0004367681A
:1036A0009F4200F0CF8323687E1C9D4200F02E8253
:1036B000A268964200F22E823022DA55D4F80080B9
:1036C0000023666008F806306FF0004367689F4289
:1036D00000F0B88323687E1C9D4200F04582A268FA
:1036E000964200F245823022DA55D4F80080002359
:1036F000666008F806306FF0004367689F4200F08C
:10370000A18323687E1C9D4200F06282A2689642DB
:1037100000F262823022DA55D4F80080002366601D
:1037200008F806306FF0004367689F4200F08A8314
:1037300023687E1C9D4200F07982A268964200F2C6
:1037400079823022DA55D4F800800023666008F8C8
:1037500006306FF000436768DB1B012B40F2728379
:103760002368BE1C9D4200F08E82A268964200F241
:103770008E821A4A1288DA53D4F8008000236660D9
:1037800008F806306FF000436768DB1B012B40F23E
:1037900059832368BE1C9D4200F0A282A268964213
:1037A00000F2A2820E4A1288DA53D4F80080002375
:1037B0002046666008F8063007B0BDE8F08F3A781A
:1037C0002B46227285E600BF681F0024C021010835
:1037D000E0210108E8210108F0210108F421010895
:1037E000FC2101080F2F7FF68FAE0F23002FC0F2B0
:1037F0002C83B7EB430F4FEA430AC0F09D82BA46D1
:103800001AF1010000F19C8208F098FC0646B9F11B
:10381000000F07D0B9F1010F216800F0DF824A469E
:103820000AF06CFABBF1000F0CD0B8F1000F09D010
:10383000B8F1010F06EB090000F0CB824246594671
:103840000AF05CFA2068854203D0A168013108F0D3
:1038500073FC2660C4F808A064E6013008F06EFC32
:10386000A6602060394632460AF048FA236830E6FE
:103870000F2F7FF672AE0F22002FC0F2E682B7EB59
:10388000420F4FEA4209C0F05D82B94619F10100CA
:1038900000F1568208F052FC2168804636B1012EB4
:1038A00000F09F8232460AF029FA2168C54B08EBE6
:1038B00006028D4218681B7948F80600137104D07F
:1038C0000846A168013108F037FCC4F80080C4F84C
:1038D00008904AE60F2F7FF65CAE0F22002FC0F251
:1038E000B482B7EB420F4FEA4209C0F03082B946CA
:1038F00019F1010000F1248208F020FC21688046C3
:1039000036B1012E00F0708232460AF0F7F92168D4
:10391000AD4B08EB06028D4218681B7948F806008B
:10392000137104D00846A168013108F005FCC4F801
:103930000080C4F8089034E60F2E7FF645AE0F22C3
:10394000002EC0F28282B6EB420F4FEA4209C0F06D
:103950000382B14619F1010000F1F28108F0EEFB9B
:10396000D4F800A0804637B1012F00F040823A46DB
:1039700051460AF0C3F93023554508F8073004D002
:10398000A1685046013108F0D7FBC4F80080C4F8A4
:1039900008901DE60F2E7FF62EAE0F22002EC0F2ED
:1039A0005482B6EB420F4FEA420AC0F0DA81B246C7
:1039B0001AF1010000F1C48108F0C0FBD4F80090B6
:1039C000804637B1012F00F016823A4649460AF088
:1039D00095F930234D4508F8073004D0A1684846D2
:1039E000013108F0A9FBC4F80080C4F808A006E67D
:1039F0000F2F7FF618AE0F22002FC0F22682B7EBF2
:103A0000420F4FEA4209C0F0B181B94619F10100F5
:103A100000F1968108F092FB2168804636B1012EB4
:103A200000F0ED8132460AF069F92168674B08EB36
:103A300006028D4218889B7828F80600937004D0FF
:103A40000846A168013108F077FBC4F80080C4F88B
:103A50000890F0E50F2E7FF601AE0F22002EC0F287
:103A6000F481B6EB420F4FEA420AC0F08481B246BD
:103A70001AF1010000F1648108F060FBD4F80090B5
:103A8000804637B1012F00F0BD813A4649460AF021
:103A900035F930234D4508F8073004D0A168484671
:103AA000013108F049FBC4F80080C4F808A0D9E54A
:103AB0000F2E7FF6EAAD0F22002EC0F2C681B6EBC4
:103AC000420F4FEA420AC0F05B81B2461AF1010090
:103AD00000F1368108F032FBD4F80090804637B10F
:103AE000012F00F093813A4649460AF007F9302346
:103AF0004D4508F8073004D0A1684846013108F068
:103B00001BFBC4F80080C4F808A0C2E50F2E7FF6A6
:103B1000D3AD0F22002EC0F29881B6EB420F4FEAD0
:103B2000420AC0F03281B2461AF1010000F1088168
:103B300008F004FBD4F80090804637B1012F00F064
:103B400069813A4649460AF0D9F830234D4508F8CC
:103B5000073004D0A1684846013108F0EDFAC4F8F6
:103B60000080C4F808A0ABE50F2E7FF6BCAD0F2295
:103B7000002EC0F26A81B6EB420F4FEA420AC0F053
:103B80000981B2461AF1010000F1DA8008F0D6FA94
:103B9000D4F80090804637B1012F00F03F813A46BB
:103BA00049460AF0ABF830234D4508F8073004D0F9
:103BB000A1684846013108F0BFFAC4F80080C4F893
:103BC00008A094E5E0210108E8210108F02101089E
:103BD0000F2E7FF69FAD0F22002EC0F23681B6EB7E
:103BE000420F4FEA420AC0F0DA80B2461AF10100F1
:103BF00000F1A68008F0A2FAD4F80090804637B110
:103C0000012F00F00F813A4649460AF077F8302339
:103C10004D4508F8073004D0A1684846013108F046
:103C20008BFAC4F80080C4F808A077E50F2E7FF661
:103C300088AD0F22002EC0F20881B6EB420F4FEA8A
:103C4000420AC0F0B180B2461AF1010078D408F0FF
:103C500075FAD4F80090804637B1012F00F0E68065
:103C60003A4649460AF04AF830234D4508F80730ED
:103C700004D0A1684846013108F05EFAC4F800801B
:103C8000C4F808A061E50F2E7FF673AD0F22002E59
:103C9000C0F2DB80B6EB420F4FEA4209C0F08980E8
:103CA000B14619F101004BD408F048FA216880466A
:103CB00037B1012F00F0BE803A460AF01FF82168A4
:103CC000654B8D421B8828F8073004D00846A16850
:103CD000013108F031FAC4F80080C4F808904DE5CD
:103CE0000F2E7FF65FAD0F22002EC0F2AE80B6EB36
:103CF000420F4FEA420961D3B14619F101001FD4C6
:103D000008F01CFA2168804637B1012F00F0958039
:103D10003A4609F0F3FF2168504B8D421B8828F882
:103D2000073004D00846A168013108F005FAC4F84C
:103D30000080C4F808903AE5BAF1000FBFF660AD14
:103D400008F00DFAB9F1000FBFF6A0ADF8E7B9F130
:103D5000000FBFF6CDADF3E7B9F1000FBFF6FAAD36
:103D6000EEE7BAF1000FBFF623AEE9E7B9F1000FB5
:103D7000BFF64CAEE4E7BAF1000FBFF679AEDFE76D
:103D8000BAF1000FBFF6A2AEDAE7BAF1000FBFF644
:103D9000CBAED5E7BAF1000FBFF6F4AED0E7BAF17B
:103DA000000FBFF623AFCBE7BAF1000FBFF64CAF61
:103DB000C6E7B9F1000FBFF674AFC1E7B9F1000F64
:103DC0009BDABDE79BF8003006F809302668FFF75C
:103DD000A9BB9BF8003006F8093033E50B78037077
:103DE00020E50B78037061E50B78037090E59AF895
:103DF00000300370BFE599F800300370E9E50B78F7
:103E0000037013E699F80030037042E699F8003029
:103E100003706CE699F80030037096E699F800306C
:103E20000370C0E699F800300370F0E699F80030AE
:103E3000037019E70B78037042E70B7803706BE7A8
:103E400028460FE5064808F093F9064808F090F96F
:103E5000054808F087F900BFF4210108FC2101089A
:103E6000C8210108F8DE0008CCDE000810B50446C1
:103E700007F0F4FE04F13400BDE8104007F028BF5D
:103E80002DE9F04F002499B091460DF12008274606
:103E90000DF1380A0DF1500B05902301754ACDF84C
:103EA0001880D5580493002D00F0E0802846FCF7D8
:103EB00027FC0F28064600F2828001287BD12B7850
:103EC0008DF82030434607969F55CDF830A0DDE9A8
:103ED0000613022B1E4628BF0226F14202D00029FB
:103EE00000F0C480012B75D01BB13246504609F05A
:103EF00005FF06F160030D96CDF848B06B4403F85A
:103F0000287CD9E90013022B1E4628BF0226F14265
:103F100002D0002900F0AA80012B5FD01BB13246ED
:103F2000584609F0EBFE06F1600313966B4403F864
:103F3000107C139A12990192DDE90C639A4228BF12
:103F40001A4642B13046CDE9021309F025FE024679
:103F5000DDE9021308B9019A9A1A594507D00846B3
:103F600014990192013108F0E7F80C9E019A564528
:103F700006D00E9930460192013108F0DDF8019A21
:103F800082B30698404511D008990134013108F0F8
:103F9000D3F8302C81D10599002301F108020B726E
:103FA000C1E90023059819B0BDE8F08F0134302C29
:103FB0007FF473AFEFE7002850D1434683E7013029
:103FC00008F0BCF8089606903246294609F096FE9D
:103FD000069B78E70B788DF838308AE70B788DF8F8
:103FE0005030A0E7D9F80430022B1C4628BF022429
:103FF0001A1B0BD053B1D9F80000012A00EB0401C1
:104000002ED009F0D9FDD9F80420121B0499002004
:10401000184BC9F804200B44D9F8001088541A7BB7
:104020009AB1144A2946049B05981344D9F80020F4
:104030009B68984706984045B4D00899013108F02C
:104040007BF8059819B0BDE8F08FD9F80420002A54
:10405000E7D15B68294605989847EBE74046B3E708
:10406000035D0370D9F80420121BCFE7024808F063
:1040700079F800BF7C230108CCDE00082DE9F0416F
:1040800092B0002300F13407054602AE8DF80830E7
:104090000EACCDE9006307F0C7FE384607F0C4FE5A
:1040A0000CA83B22294607F0E7FE0C9B0098A34290
:1040B00000F0DD80B042009344D0DDE90D32019381
:1040C000029B0292002841D00E930C9000230D9386
:1040D00003700C98A04203D00E99013108F02CF81F
:1040E000019A002A36D10CA83B22394607F0C4FEBB
:1040F0000C9B0098A34200F0C880B042009300F0EF
:10410000D280DDE90D320193029B0292002800F07B
:10411000CE800E930C9000230D9303700C98A04258
:1041200003D00E99013108F007F8019A002A58D1FE
:104130000098B04203D00299013107F0FDFF12B0A0
:10414000BDE8F0810E9B02930D9B01930C940EAC85
:104150002046BBE700990DF1200806A80A44CDF8D7
:104160001880FEF749FD0CA806AA2946FFF788FE2D
:104170000C9B0098A34200F0BC80B042009300F07A
:10418000A280DDE90D320193029B0292002800F02B
:104190009E800E930C9000230D9303700C98A04208
:1041A00003D00E99013107F0C7FF0698404503D0B0
:1041B0000899013107F0C0FF019A002A93D00099B5
:1041C0000CA80C940A44FEF717FD28460CA907F02A
:1041D00057FF0C98A04286D00E99013107F0ACFF32
:1041E00081E700990DF1200806A80A44CDF818804F
:1041F000FEF702FD0CA806AA2946FFF741FE0C9B1C
:104200000098A34267D0B042009354D0DDE90D324C
:104210000193029B0292002851D00E930C90002330
:104220000D9303700C98A04203D00E99013107F052
:1042300083FF0698404503D00899013107F07CFFC1
:10424000019A002A3FF474AF00990CA80C940A4418
:10425000FEF7D2FC38460CA907F012FF0C98A042DA
:104260003FF466AF0E99013107F066FF60E70D9AE3
:1042700032B1012A4BD0214609F040FD0D9A009839
:104280000023019283540C9820E70D9A32B1012A41
:1042900043D0214609F032FD0D9A00980023019287
:1042A00083540C9837E70E9B02930D9B01930C945B
:1042B0000EAC20462FE70E9B02930D9B01930C94AE
:1042C0000EAC2046ABE70E9B02930D9B01930C9422
:1042D0000EAC20465FE70D9A32B1012A29D0214663
:1042E00009F00CFD0D9A00980023019283540C985C
:1042F00095E70D9A32B1012A15D0214609F0FEFC4E
:104300000D9A00980023019283540C9843E79DF87E
:10431000383003700D9A0098B2E79DF8383003707A
:104320000D9A0098BAE79DF8383003700D9A0098FE
:10433000E8E79DF8383003700D9A0098D4E700BF85
:104340002DE9F047012484B00025DFF8D49106461A
:10435000DFF8D0812B46494604220294039500F5EC
:1043600046606E4FDFF8C0A1CDE9004502F082FE45
:104370002B464146092206F66840CDE90245CDE9C3
:10438000004502F077FE2B4649460E2206F54760AF
:10439000CDE90245CDE9004502F06CFE2B463946D9
:1043A0000A2206F67840CDE90245CDE9004502F043
:1043B00061FE2B4639460B2206F54860CDE90245E1
:1043C000CDE9004502F056FE23463946072206F69F
:1043D0008840CDE90245CDE9004502F04BFE234679
:1043E00051460D2206F54960CDE90245CDE900456B
:1043F00002F040FE49462346082206F69840CDE9E1
:104400000245CDE9004502F035FE234622464146ED
:1044100006F54A60CDE90245CDE9004502F02AFEE5
:10442000234639460E2206F6A840CDE90245CDE9DD
:10443000004502F01FFE23463946062206F54B6072
:10444000CDE90245CDE9004502F014FE2346394688
:10445000052206F6B840CDE90245CDE9004502F057
:1044600009FE23463946042206F54C60CDE9024593
:10447000CDE9004502F0FEFD23463946032206F64B
:10448000C840CDE90245CDE9004502F0F3FD2346E1
:104490002A46394606F54D60CDE90245CDE900458D
:1044A00002F0E8FD234641460C2206F6D840CDE94D
:1044B0000245CDE9004502F0DDFD2346224639469E
:1044C00006F54E60CDE90245CDE9004502F0D2FD8A
:1044D000414623460A2206F6E840CDE90245CDE9E9
:1044E000004502F0C7FD39462346022206F54F601B
:1044F000CDE90245CDE9004502F0BCFD2346514619
:104500000E2206F6F840CDE90245CDE9004502F05D
:10451000B1FD304604B0BDE8F08700BF000C025882
:1045200000040258000802580000025808B5094B60
:10453000197859B10021084805F038F8074B0021D7
:104540001A6922F001021A61D96208BD0448FCF719
:1045500015FDEFE7007C0224702C002400040040CD
:10456000781E002470B50546002684B000F5496029
:1045700085F82F6D019102F0F3FE05F6884002F0F8
:10458000EFFEFF230199284685F82C3D06F060FBDD
:1045900005F66C30FDF706FB05F6544006F05CFFAF
:1045A000174B4FF000521A60164C03A8214606F034
:1045B000EBFF4EF66023266005F550606660A3624F
:1045C000236823F4407343F400732360E36843F0EB
:1045D0000103E360236843F004032360236843F08E
:1045E00010032360236843F00103236006F0E4FC1A
:1045F00005F6085004B0BDE8704004F057BF00BF96
:1046000000E100E000040040F8B5044600F68840F0
:104610000D4602F0A5FE04F546660021624803F04F
:104620009FF994F82E7D304602F07AFE874208D03A
:10463000304602F075FE0146204684F82E1D05F036
:104640008BFA6B1F2046012B40F2888005F09EF903
:10465000B4F928CDBCF1730F00F3A380BCF16D0F4A
:1046600000F399800223514E1AB2013336F9121029
:104670009BB26145F8DA02EB82024D4B02EB8202FB
:10468000920083FB02131344D217C2EBE30212B26F
:10469000904240F382800021434803F09FFA0021BA
:1046A000414803F0CBFA04F5496002F059FE04F5E5
:1046B0004D6002F05BFE04F6D84002F057FE04F5B0
:1046C0004E6002F053FE04F6E84002F04FFE04F59F
:1046D0004F6002F04BFE04F6F84002F047FE204621
:1046E00004F0B0FF00284DD0012842D004F69840D5
:1046F00002F03CFE04F54A6002F038FE94F82C3DCE
:1047000004F60856AB4205D00021304684F82C5DF3
:1047100004F04CFF204605F00FF9264901442248D9
:10472000490003F057F82946304604F047FF054694
:1047300020462B68DF6805F097F86421024628467A
:10474000B84703462946304625330D2BB8BF0D2305
:10475000A4F8283DBDE8F84004F028BF05F078F83B
:104760000146114803F03AFA204604F081FF014661
:1047700096E704F6984002F0F9FD04F54A6002F06D
:10478000EFFDBBE704F6984002F0EAFD04F54A604D
:1047900002F0E6FDB2E701226DE7204605F082F85F
:1047A000DEE7002274E700BF781E0024FC26010823
:1047B0009324499240A2FFFF70B5044605F00EF91C
:1047C0002E4903462E4804F608561944490003F0C2
:1047D00001F80021204605F02BF9014604F54D6053
:1047E00002F0A8FD0121204605F022F9014604F659
:1047F000D84002F09FFD0221204605F019F901463C
:1048000004F54E6002F096FD0321204605F010F9F4
:10481000014604F6E84002F08DFD0421204605F033
:1048200007F9014604F54F6002F084FD052120469A
:1048300005F0FEF8014604F6F84002F07BFD04F6B0
:10484000984002F093FD04F54A6002F089FD04F6F9
:10485000884002F08BFD304604F0C2FE03686421FC
:1048600040F65432DB6805469847034629463046F1
:10487000A4F82A3DBDE8704004F098BE40A2FFFFB6
:10488000781E0024F0B5044687B00D4604F0D2FE31
:1048900004F66C3701462046059104F0CFFE0490E3
:1048A0003846FDF72BF803903846FDF72BF80646FF
:1048B0003846FDF71FF80599DDE90332CDE90060C0
:1048C0000E4803F07FF929460C4803F049F80C4BD9
:1048D0001B786BB1204604F0F9FF014604F608503E
:1048E00004F080FE204607B0BDE8F040FFF764BF4B
:1048F0000A210248FCF742FBECE700BF781E0024C7
:10490000007C022470B5044686B006F091FA04F6E5
:104910006C30FDF7A1F904F6544006F01FFE204666
:1049200004F0D4FF0646204604F01AFF054604F5BD
:104930004B6005F0010102F0FDFCC5F3400104F6F7
:10494000B84002F0F7FCC5F3800104F54C6002F0BA
:10495000F1FCC5F3C00104F6C84002F0EBFC2046B0
:1049600004F062FF014604F6A84002F0E3FC002ECA
:1049700059D0731EDBB2032B1ED804F5506006F02D
:104980005FFB0021204694F82F5D06F0B9F800285F
:1049900069D04648FCF7EEFA01286AD1002D72D1A1
:1049A00004F6085004F01CFE002835D0204606B05E
:1049B000BDE87040FFF700BF04F5506006F040FB13
:1049C0000021204694F82F5D06F09AF8002844D084
:1049D0003648FCF7CFFA01285CD1002DE0D004F571
:1049E000496002F0C3FC04F6684002F099FC0146FD
:1049F0002046C1F10501C9B2FFF744FF2C4B4FF42B
:104A0000FA7204F60850DA625A6942F001025A61F9
:104A100004F0E6FD0028C9D13146204606B0BDE8C5
:104A20007040FFF7F1BD204604F000FF014620462C
:104A3000059104F005FF02462046049204F0FEFEB4
:104A40000390204604F000FF0599009004F55060A3
:104A5000DDE9033206F0DEFAA2E7204604F026FF85
:104A60000028B5D1B9E7204604F020FF002890D1F6
:104A700094E704F5476002F053FC80F00100054321
:104A8000EDB2002D8CD004F5496002F06FFC0321DB
:104A90002046B1E704F5476002F042FC80F00100D7
:104AA0000543EDB2002D3FF47BAF98E7781E00245C
:104AB00000040040B0F92A0D704700BF00F66840BE
:104AC00002F02EBC38B50021044606F019F830B9C2
:104AD000204604F0EBFE10B90025284638BD1048EA
:104AE000FCF748FA0128F7D0204604F0A7FE012879
:104AF0000CBF04F5486004F6784002F011FC80F029
:104B0000010505F001050028E7D1204604F092FEDA
:104B1000044BD86228465A6942F001025A6138BDF6
:104B2000781E00240004004038B50021044605F03A
:104B3000E7FF30B9204604F0B9FE10B90025284639
:104B400038BD1048FCF716FA0128F7D0204604F0CB
:104B500075FE01280CBF04F6784004F5486002F0A9
:104B6000DFFB80F0010505F001050028E7D12046B4
:104B700004F060FE044BD86228465A6942F00102F4
:104B80005A6138BD781E00240004004008B500F6C4
:104B9000085004F011FD18B1BDE8084004F08CB9CC
:104BA00008BD00BF38B50021044690F82F5D05F020
:104BB000A7FF18B9204604F079FE20B10848FCF799
:104BC000D9F9012801D1284638BD04F5476002F023
:104BD000A7FB80F001000543EDB2284638BD00BFB9
:104BE000781E0024B0F9280D73281BDC6D2810B442
:104BF0001ADC02230D4C1AB2013334F912109BB2A5
:104C00008142F8DA02EB8202094B5DF8044B02EBB9
:104C10008202920083FB0213D0171344C0EBE3001F
:104C200000B27047002070470122EBE7FC26010824
:104C30009324499210B5044600F66C30FCF77CFED4
:104C400000EE100A04F60850B8EEC00ABDE81040A5
:104C5000FBF7F8BF30B5044685B004F04DFE0546BD
:104C6000204604F01FFD024604F66C3101A812B282
:104C7000FCF74CFEBDF80C309FED077A13FB05F3F3
:104C800007EE903AF8EEE77A67EE877AFDEEE77A7C
:104C900017EE900A05B030BD72A63E3910B5044635
:104CA00000F66C30FCF748FE00EE100A04F60850DF
:104CB000B8EEC00ABDE81040FBF79ABF38B504460D
:104CC00004F01EFF0546204604F030FE08B92846D1
:104CD00038BD204604F010FF0028F8D1204604F02B
:104CE00021FE60B10128F2D104F6085004F078FCEE
:104CF0000028ECD0204604F01BFE0544E7E704F64C
:104D0000085004F06DFC0028E1D1F3E738B5044603
:104D100004F000FF0546204604F008FE08B92846C6
:104D200038BD204604F0E8FE0128F8D1204604F002
:104D3000F9FD60B10128F2D104F6085004F050FCEE
:104D40000028ECD0204604F0F3FD0544E7E704F624
:104D5000085004F045FC0028E1D1F3E780F82F1D4E
:104D6000704700BFF0B51B4B85B004460D4693E875
:104D7000070004AB04F1080603E90700284604F025
:104D800043FC04AB266003EB800050F80C7CF7B1C9
:104D90003846FBF7B5FC0F2805460BD8012806D08E
:104DA00070B9002320466560735505B0F0BD3B78AF
:104DB0002372F6E7013007F0C1F90646A5602060CE
:104DC00030462A46394608F099FF2668E9E7024846
:104DD00007F0C8F90CDE0008CCDE0008F0B51B4B6C
:104DE00085B004460D4693E8070004AB04F10806BD
:104DF00003E90700284604F025FC04AB266003EB1A
:104E0000800050F80C7CF7B13846FBF779FC0F288E
:104E100005460BD8012806D070B9002320466560EE
:104E2000735505B0F0BD3B782372F6E7013007F00B
:104E300085F90646A560206030462A46394608F0C6
:104E40005DFF2668E9E7024807F08CF918DE0008E4
:104E5000CCDE0008F0B51D4C89B00F46054600F1C8
:104E600008060DF1040C0FCCACE80F0094E8070025
:104E70008CE80700384604F029FD08AB2E6003EBF0
:104E8000800050F81C7CF7B13846FBF739FC0F283E
:104E900004460BD8012806D070B9002328466C6060
:104EA000335509B0F0BD3B782B72F6E7013007F0BF
:104EB00045F90646AC60286030462246394608F07F
:104EC0001DFF2E68E9E7024807F04CF938DE0008BC
:104ED000CCDE0008F0B52F4B85B00D46044604AE7D
:104EE0000FCB06E90F000021284605F009FE18B98E
:104EF000284604F0DBFC68B3284604F017FDD8B15F
:104F0000284604F1080604F00DFD04AB266003EB0F
:104F1000800050F8107C002F38D03846FBF7F0FBAB
:104F20000F28054625D8012820D040BB0023204665
:104F30006560735505B0F0BD174A04F10803E072CF
:104F4000204611882360218191780322A17262603A
:104F500005B0F0BD114A04F108030221A0721288C5
:104F60002046C4E90031228105B0F0BD3B782372B0
:104F7000DCE7013007F0E2F80646A5602060304625
:104F80002A46394608F0BAFE2668CFE7044807F0FB
:104F9000E9F800BF54DE0008802601087C260108DD
:104FA000CCDE000810B5044601F6544006F0E0FAE5
:104FB00003490246204601F023FE204610BD00BFF3
:104FC0008426010838B5044601F66C300D46FCF71E
:104FD000AFFC00EE100A05F60850B8EEC00AFBF769
:104FE00055FEB7EEC07A2046034953EC172B01F06B
:104FF00007FE204638BD00BF8C26010838B50446A0
:1050000001F66C300D46FCF797FC00EE100A05F631
:105010000850B8EEC00AFBF7EBFDB7EEC07A2046A9
:10502000034953EC172B01F0EBFD204638BD00BFC0
:105030009426010808B500F6085004F0D1FA0038AB
:1050400018BF012008BD00BF08B50248FFF778F976
:1050500008BD00BF681F002470B505460E4602B1AA
:1050600011B3941B0F2C0ED8012C286804D094B9CE
:1050700000236C60035570BD3378037000232868EB
:105080006C60035570BD002C13DB601C0FD407F05F
:1050900055F8AC6028602246314608F02FFE28689B
:1050A00000236C60035570BD034807F05BF807F000
:1050B00056F8024807F05CF8CCDE0008F8DE00087D
:1050C0002DE9F04192B0464D42F20412454B0EAF2D
:1050D0000995ADF82820CDE90B3700297CD004468E
:1050E00008460E46FBF70CFB0F2805464FD8012853
:1050F00048D0002869D13A4600230D95204605AED8
:1051000053556E2309990B9AA161BDF828102262AC
:10511000A183117B962204310091194603F0B4FA61
:105120000396DDE90C8518EB050F02D0B8F1000FEE
:1051300052D00F2D39D8012D34D198F80030314696
:105140008DF8143000236E22049520464B55012320
:1051500003A9CDE90023982303F04AF90398B0424C
:1051600003D00599013106F0E7FF0C98B84203D04F
:105170000E99013106F0E0FF204612B0BDE8F04183
:1051800003F0D4B833783A468DF83830B4E70130BC
:1051900006F0D4FF0E950C902A46314608F0AEFD7D
:1051A0000C9AA9E79DB93146CCE7002D11DB681CAC
:1051B00009D406F0C3FF0595039041462A4608F03E
:1051C0009DFD0399BEE706F0CAFF3846E4E7304686
:1051D000F3E7054806F0CCFF044806F0C3FF00BF24
:1051E000C0F7FFFF88110024F8DE0008CCDE0008BD
:1051F0004CF218619A4B00222DE9F041418392B0A4
:1052000090F824100446036201291B7B11460CBF51
:105210004FF4C0450C25043300934FF4A0738583ED
:1052200001950EAD03F0E4F98E490CA8FFF752FE8C
:105230000121282220460223CDE900210A220CA9BF
:1052400003F0D6F80C98A84203D00E99013106F06D
:1052500073FF84490CA8FFF7C1FD282301222046D3
:105260000CA9CDE900320223322203F0C1F80C98D8
:10527000A84203D00E99013106F05EFF79490CA8CF
:10528000FFF770FD3223012220460CA9CDE9003240
:1052900002235A2203F0ACF80C98A84203D00E99CE
:1052A000013106F049FF6F490CA8FFF77BFE282368
:1052B000012220460CA9CDE900320223D22203F0BC
:1052C00097F80C98A84203D00E99013106F034FFEC
:1052D00064490CA8FFF776FE3C23012220460CA966
:1052E000CDE900320223FA2203F082F80C98A8429A
:1052F00003D00E99013106F01FFF4FF2C0735948D9
:10530000638304F011FC002873D1574B0DF1200882
:10531000564A0293564B53482262039304F0C0F955
:1053200012ABCDF8188003EB800050F8407C17B921
:10533000504806F017FF3846FBF7E2F90F280646FB
:105340006FD8012E37D0002E40F0868042460023D1
:105350002046079606A993559122CDE900330223F2
:1053600003F046F80698404503D00899013106F04D
:10537000E3FE414A414B3B48CDE9042304F054FA93
:10538000F0B13848FFF79AFB12AB0C9503EB8000A5
:1053900050F8387C002FCBD03846FBF7B1F90F28F6
:1053A00006464ED8012847D0002857D12A46002368
:1053B0000D9693550AE03B7842468DF82030C6E7BB
:1053C00001222F23CDE90C52ADF8383000222046BF
:1053D00002230CA9CDE90022AA2203F009F80C98B7
:1053E000A84203D00E99013106F0A6FE12B0BDE826
:1053F000F0810122002320460CA90D9277220C9502
:10540000ADF83820BE22CDE90033022302F0F0FFD0
:105410000C98A8423FF479AF0E99013106F08CFE4A
:1054200073E7701C06F08AFE0896069032463946ED
:1054300008F064FC069A8AE73B782A468DF83830F3
:10544000B5E7013006F07AFE0E960C9032463946EA
:1054500008F054FC0C9AAAE74046E7E72846F5E72F
:10546000D40A0024681F002424270108B80400245B
:10547000EC210108CCDE00081C27010820270108C8
:105480002DE9F04788B005460F469846109C0DF16F
:10549000100926688661A668B4F804C00662A0F800
:1054A0001CC0367B04360096164603F0EDF8CDF8A6
:1054B0000890D4E903A41AEB040F02D0BAF1000F4C
:1054C00033D00F2C22D8012C1AD09CBBCC46002103
:1054D0000394023628460CF8041001243A4633B2ED
:1054E00002A9CDF80080019402F082FF029848459D
:1054F00003D00499214406F01FFE08B0BDE8F087F0
:105500009AF80030CC468DF81030E0E7002C13DB21
:10551000601C0DD406F012FE0494029051462246FF
:1055200008F0ECFBDDF808C0D1E7054806F01AFEEC
:1055300006F015FE4846F1E7024806F019FE00BFE6
:10554000CCDE0008F8DE00082DE9F04F8FB01F46D2
:1055500089460646189C03928461BDF864408483A2
:105560001A9C04621E2400941C9C049403F08CF882
:1055700023B24B48002F03EB4302B4BF791C3946DA
:10558000C3EBC20349105B0080FB0320DA17C2EBB8
:10559000E022BDF96C0092B202F10A039CB20FFA4C
:1055A00083FA431C70D0012874D0B7EB0A058BB284
:1055B00048BF0135079345F34F051FFA89F30432BD
:1055C0004FF440481D440593BDF80C300FFA82FBA0
:1055D000ADB203F10C040693A4B229B2534622B231
:1055E0003046CDF800800135029102F0D3FF621EF3
:1055F00053460299304612B2CDF8008002F0CAFF3D
:105600005346AAF1020AA21E029930460FFA8AFAFC
:10561000CDF8008012B2033C02F0BCFFDA45ADB217
:10562000A4B2DAD1049A08A81E4901F0E9FA069C4E
:10563000012330460F3408A901934A4624B200974B
:10564000234602F0D5FE08980AAB984203D00A9987
:10565000013106F071FD308B013F224649463BB2D5
:105660000090304602F096FF059B0798591E338B39
:10567000039A084418930F230146304609B20FB02D
:10568000BDE8F04F02F06EBF8BB29D1E07932D1B3D
:105690002DB292E78BB25D1C07932DB28DE700BF50
:1056A000A558F5347CE100082DE9F04788B01E4686
:1056B00005460F46109C0DF1100990462388CDF841
:1056C000089043836368D4E902A403621AEB040FD1
:1056D00002D0BAF1000F31D00F2C20D8012C18D0F5
:1056E0008CBBCC4600210394284643460CF804109A
:1056F00002243A4602A90096019402F079FE02982B
:10570000484503D00499013106F016FD08B0BDE804
:10571000F0879AF80030CC468DF81030E2E7002C84
:1057200013DB601C0DD406F009FD04940290514671
:10573000224608F0E3FADDF808C0D3E7044806F093
:1057400011FD06F00CFD4846F1E7024806F010FD99
:10575000CCDE0008F8DE00082DE9F04F83B0254FBD
:105760004FF0100A0646BDF930C088469146BDF894
:1057700038B00CFB03FC1D4687FB0C474FEAEC746A
:10578000C4EB671444F2082724B29C42A8BF1C460D
:10579000CDE900A7BDF9347002F02AFF23464A463E
:1057A00041463046CDF804B0CDF800A002F020FF0D
:1057B000002F02DC03B0BDE8F08F05FB07F70E4BAE
:1057C0004FF470444A4683FB07133046CDF830A0AF
:1057D0003B44FF170D94C7EBA31704233FB2AF421E
:1057E000D4BFB844A8440FFA88F103B0BDE8F04F25
:1057F00002F0FEBE1F85EB51A1A0A0A02DE9F0474D
:105800008AB098464FF2C0730446DDF84C900F46BC
:105810009DF848C01646C0F820904383BCF1000FA5
:105820002FD00DF1180A1720CDF810A006F086FC35
:105830000023CDF80080DFF818C105460193837579
:1058400016230490CDE90533BCE80F002860EB6017
:10585000DCF80000BCF80430696004A9AA603A468C
:1058600028612046AB82334602F0C2FD04985045C1
:1058700003D00699013106F05FFC4FF47043A38317
:105880004EE00DF1180A304B4FF00D0E5546CDF895
:1058900010A00FCBCDE9008C07C520462B703A46EF
:1058A000334604A9CDF814E08DF825C002F0A0FD20
:1058B0000498504503D00699013106F03DFC234B76
:1058C0001820CDF810A0C4F81A3006F037FC0023D9
:1058D000CDF8008005460193DFF878C0C375172323
:1058E0000490CDE90533BCE80F00EB60BCF8043050
:1058F0002860AB82DCF800009CF80630696004A9DF
:10590000AA603A4628612046AB75334602F070FD26
:105910000498504503D00699013106F00DFCA38B85
:1059200099F80C003946BDF95250023002934346B3
:10593000019582192046BDF9504012B20094FFF73C
:105940000BFF0AB0BDE8F0874027010800F0800493
:1059500028270108502701082DE9F04F1FFA82FA85
:105960008BB004460AF1010704933FB2394602F0B6
:10597000D5FC06466648FFF709F9054605906448D8
:1059800003F0DAFF0890002D00F083800AF1020195
:105990002046A56A09B202F0C1FC394607462046F6
:1059A00002F0BCFC01463846049F07EB4702C7EBF8
:1059B0000212520008F000F9002F6ADD089BB21EA7
:1059C0004FF001085B1B0392524A07FB03F382FB73
:1059D0000312DB17C3EBA2231AB2BBB293460692A3
:1059E000099343449BB2079306E008F10108079B23
:1059F0000BF1010B98454CD04FEA0823049A1FFA8B
:105A000088F6A3F58073711E93FBF2F3059A09B231
:105A100032F913202C2A4FDD4FF680030398AAEBAE
:105A200002024FEA480520F8023F43F29413039024
:105A300012B2009320460223023D02F093FD069B22
:105A4000002BD2D0099A4FEA4B07A2EB060636B2DA
:105A500033444FEA46064FEA430937DD049B0AF117
:105A60003006D1465B45B6B218DC04270FFA89F13F
:105A700009F1010920461FFA89F902F04FFC47534A
:105A8000B145F3D108F10108079B0BF1010B9845D3
:105A9000B2D1089BA3620BB0BDE8F08F0FFA89F179
:105AA00009F1010920461FFA89F902F037FCC35BAE
:105AB0004E454353F2D198E7174B83FB0203174837
:105AC000A3EBE2731BB230F81330A7E70AF13005FD
:105AD000002BADB20CDD574639B201372046BFB2BC
